:020000040800F2
:100000001809002061020008AF48000857400008A6
:10001000AD480008C91D0008CD4D000800000000D3
:10002000000000000000000000000000B3480008CD
:10003000E121000800000000B1480008B5480008B0
:100040007B0200087B0200087B0200087B0200089C
:100050007B0200087B0200082D22000833220008E2
:10006000392200083F220008452200087B020008D0
:100070007B0200087B0200087B0200087B0200086C
:100080007B0200087B0200087B02000800000000E1
:100090000000000000000000000000007B020008DB
:1000A0007B0200087B0200087B0200087B0200083C
:1000B0007B020008494900087B0200087B02000817
:1000C0007B0200087B0200087B0200087B0200081C
:1000D0007B020008C14D00087B0200080000000000
:1000E0007B0200087B0200087B0200080000000081
:1000F0000000000000000000000000007B0200087B
:10010000000000007B0200087B0200087B02000860
:1001100000000000000000000000000000000000DF
:10012000312100087B0200087B0200087B020008E6
:100130007B0200080000000000000000000000003A
:100140000000000000000000000000007B0200082A
:100150007B0200087B0200087B0200087B0200088B
:100160007B0200087B020008000000000000000085
:10017000000000000000000000000000000000007F
:10018000000000007B0200080000000000000000EA
:100190007B02000800F002F800F052F80AA090E894
:1001A000000C82448344AAF10107DA4501D100F032
:1001B00047F8AFF2090EBAE80F0013F0010F18BFAD
:1001C000FB1A43F001031847F057000010580000D5
:1001D000103A24BF78C878C1FAD8520724BF30C873
:1001E00030C144BF04680C60704700000023002445
:1001F00000250026103A28BF78C1FBD8520728BF37
:1002000030C148BF0B607047662905F05E836429E2
:1002100000F0DA80002070471FB505F04CFB00F0BD
:1002200089FD04000020002104F002FF401C6060F2
:100230000020002104F0E6FEE0601FBD10B510BDF7
:1002400001F03AF81146FFF7E7FF04F0EFFD01F087
:1002500061F803B4FFF7F2FF03BC01F0A5F800005A
:100260000948804709480047FEE7FEE7FEE7FEE74A
:10027000FEE7FEE7FEE7FEE7FEE7FEE70448054986
:10028000054A064B704700003949000895010008EF
:100290001803002018090020180500201805002068
:1002A00053EA020C00F069802DE9F04B4FF0000694
:1002B000002B1FBFB3FA83F503FA05F424FA05F601
:1002C0005E4012BF1643B2FA82F502FA05F4C5F198
:1002D00020051EBF22FA05FC44EA0C04203556EA2C
:1002E000044C4FEA144418BF641C4FF000084FF050
:1002F0000009904271EB030C39D3002919BFB1FA00
:1003000081F701FA07F6B0FA80F700FA07F6C7F1AD
:1003100020071EBF20FA07FC46EA0C062037B6FB72
:10032000F4FCA7EB0507103F07F01F0BCBF12006ED
:100330000CFA0BFB2CFA06F644BFB3460026202F1E
:10034000A4BF5E464FF0000B5BEA060C08BF4FF0FF
:10035000010B19EB0B09ABFB027C48EB0608C01B39
:1003600006FB02CC0BFB03CC71EB0C01C1E70B4687
:10037000024641464846BDE8F08B13B54FF00000F9
:100380004FF00001AFF30080BDE81C407047000053
:100390000FB47CB50C0009AA009001D02044401E87
:1003A000084B7B4469460190089800F05EFC0546C6
:1003B0001CB10020694600F06BFC28467CBC5DF84F
:1003C00014FB0000F50800002DE9F041064600246A
:1003D00010687529314616A510D0AFF300800028AB
:1003E00002DA404213A507E031688A0701D512A559
:1003F00002E0490704D511A5012401E0AFF3008014
:1004000000210A2206F1240709E0B0FBF2FCB0FB50
:10041000F2F302FB1C00303078541846491C0028C7
:10042000F3D123462A463046BDE8F04100F0B0B98A
:10043000000000002D0000002B0000002000000044
:100440002DE9F0474FF0000A89460446C0F820A085
:100450002046E1688847002876D0252806D0D4E9D0
:1004600001219047206A401C2062F1E7E1682046A4
:1004700000258847C4F81CA006460027C4F818A029
:100480002A2E09D0304604F0CAFC38B304EB8708A2
:10049000303EC8F8186019E059F8041B204604EBF8
:1004A00087029161E1688847012F064618D1E0690B
:1004B000002820DA25F020051DE0D8F8180000EB10
:1004C000800006EB40003038C8F818002046E1688C
:1004D0008847064604F0A3FC0028EED1012F0AD07D
:1004E0002E2E08D12046E16888477F1C0646022F41
:1004F00045F02005C4DBA069002803DA404245F03E
:100500000105A061E80701D025F01005B6B1A6F1FC
:100510004100192802D8203645F400654A46314684
:10052000204625604D46FFF76FFE58B1012806D0E2
:10053000ED1D25F0070000F1080989E704E005F149
:10054000040985E730468AE7206ABDE8F0870000A5
:100550000FB400B58DB010A9099000910B904FF029
:10056000FF300A9000200C90064878440690064818
:1005700078446A4607900F9909A800F0ABFB0DB0CC
:100580005DF814FB870700009F0700002DE9FF5F5F
:100590001D464FF0FF3B91464FF000085F46D5E9FE
:1005A0000146A96901987F1C8847296A82468847C5
:1005B0000028F6D1BAF1FF3F0CD0002E24F4C0641D
:1005C00019DD600614D5BAF12B0F09D0BAF12D0F41
:1005D0000ED103E0584604B0BDE8F09F44F48064B7
:1005E000A96901987F1C8847761E8246002E02DD8D
:1005F000BAF1300F03D0B9F1000F26D032E0A9696B
:10060000761E01987F1C44F400748847002E8246B1
:1006100005DDBAF1780F06D0BAF1580F03D0B9F161
:10062000000F10D01EE0B9F1000F02D0B9F1100F89
:1006300018D1A969761E01987F1C24F4007488479C
:100640008246102002E0082000E00A20814609E0EE
:10065000A96908FB0908761E01987F1C44F4007400
:1006600088478246002E05DD4946504600F01DFBB6
:100670000028EDDAE96901988847A00502D46FF0F7
:100680000100A8E7E00725D1600613D5600502D573
:10069000C8F1000000E0404629680A1D2A60096888
:1006A000220501D5087015E0220701D5088011E068
:1006B00008600FE02868011D29600068210502D547
:1006C00080F8008006E0210702D5A0F8008001E054
:1006D000C0F8008038467EE710B5203AC0F00B80A5
:1006E000B1E81850203AA0E81850B1E81850A0E836
:1006F0001850BFF4F5AF5FEA027C24BFB1E8185090
:10070000A0E8185044BF18C918C0BDE810405FEAFF
:10071000827C24BF51F8043B40F8043B08BF70477B
:10072000D20728BF31F8023B48BF11F8012B28BF80
:1007300020F8023B48BF00F8012B70474FF0000241
:1007400000B5134694469646203922BFA0E80C50C7
:10075000A0E80C50B1F12001BFF4F7AF090728BFA2
:10076000A0E80C5048BF0CC05DF804EB890028BF1E
:1007700040F8042B08BF704748BF20F8022B11F047
:10078000804F18BF00F8012B7047704770477047C3
:100790002DE9F0470D4699469246044600F124089B
:1007A0000168880604D5E06921F01001216000E0AD
:1007B0000120A84201DD471B00E00027A1697A194A
:1007C00002EB0900081AA0612078C00602D4204676
:1007D000AFF30080002608E0D4E901211AF80600F2
:1007E0009047206A401C761C20624E45F4DB20783E
:1007F000C0060AD52046AFF3008006E0D4E9012107
:1008000030209047206A401C2062381EA7F1010763
:10081000F4DC07E0D4E9012118F805009047206ACC
:10082000401C2062281EA5F10105F3DC2046AFF331
:1008300000802078000602D50220BDE8F087012064
:10084000FBE770472DE9FF4F0C461E464FF0FF3780
:100850008BB0D2E90001DDF860800A908A46C1F3CE
:100860000A5505B93D46002108464FF00000BAF18F
:10087000000F00F4400005DA00EB80004FF4400167
:1008800001EA50004FEA9059B9F1010F00DDB94675
:100890000A9850EA4A000ED044F61050A5F2FF35EF
:1008A00045432F14B8F1000F1ED07542291E1EDDDE
:1008B000C9F100021CE0B8F1010F4FF0000001D0B7
:1008C000302103E0F24305E02154401CB042FBDB41
:1008D00030460022002121540B99C1F80880C1E95B
:1008E00000200FB0BDE8F08FBD1B6D1CDEE74A464F
:1008F00000DA694206A800F069FC06AB93E807003D
:1009000003AB83E8070050460A9900F054FD8DE8D8
:100910000700A0F500501F3800900398002D0ADD55
:1009200042F21F014A460844002303A90390684687
:1009300000F0BDFF09E0A0F500504A461F38002333
:1009400003A90390684600F0C7FF8DE80700000484
:10095000000C03D04FF0FF30410800E01046B8F122
:10096000000F03D00022009215461EE0751E05D42C
:1009700000F0E4F9303262556D1EF9D5B34601221C
:10098000084302D000227F1C04E02078302801D1E7
:1009900000227F1E002A099784D01DE0112D07DA5E
:1009A00000F0CCF9303262556D1C50EA0102F5D1ED
:1009B000084302D00098C8B10EE00021681E05E08F
:1009C000235C625C63542254401E491C8142F7DB65
:1009D000AB46A81B401E0990002004F80B000B98A2
:1009E000099AC0F80880C0E9002B7AE711264FF079
:1009F000000857E72DE9F04F88460446D21D22F043
:100A0000070191B0D1E90001CDE90A0104F0DFF955
:100A100002460B98C00F01D02D2007E02068810707
:100A200001D52B2002E0202101EAC000032A099011
:100A300001D0072A05DB03464146204600F0CCF9E9
:100A40000BE12078800601D5E06900E00620B8F1CE
:100A5000650F814606D0B8F1660F18D0B8F1670F60
:100A600070D131E00020B9F1110F009001DB1123AA
:100A700001E009F101030AAA01A90CA8FFF7E2FEAF
:100A8000DDE90C70002609F10105834647E00120ED
:100A90004B4600904FF000470AAA01A90CA8FFF7A7
:100AA000D1FEDDE90DB00C995D46002610B909F1C3
:100AB00001000D18B9EB050003D4C0F1FF3609F1B0
:100AC0000105A5EB09002BE0B9F1010F01DA4FF0A8
:100AD00001090020B9F1110F0090484601DD1123F2
:100AE00000E003460AAA01A90CA8FFF7ABFEDDE966
:100AF0000C704D4600268346207800070AD4AB458B
:100B000000DA5D4601A8012D04DD411911F8011C30
:100B1000302907D04F4502DA17F1040F04DA01201B
:100B200082460FE06D1EEEE7002F02DCED1B3E4417
:100B300003E0781CA84200DD7D1CB81B00F1010A0F
:100B40004FF000472078000703D4AA4501DB4FF09F
:100B5000FF3A0021B7F1004F0DF143088DF8431023
:100B600024D002202B23002F01DA7F422D230A21DB
:100B7000021EA0F1010000DC5FB197FBF1FC97FBC6
:100B8000F1F201FB1C7C17460CF1300C08F801CD8A
:100B9000EEE7A8F1010003702188090501D5452180
:100BA00000E06521A0F1010800F8011C09980FA9D7
:100BB000A1EB0807FF1D00B10120411901EBEA700C
:100BC000A1693844081A401EA0612078C00602D4EA
:100BD0002046AFF30080099828B1D4E9012190475D
:100BE000206A401C20622078C00622D52046AFF340
:100BF00000801EE0002E04DBB34502DD01A8805D0D
:100C000000E03020D4E901219047206A401C206296
:100C1000761CAAF101005FEA000A0AD100F08AF806
:100C2000C0680168405CD4E901219047206A401CFB
:100C30002062281EA5F10105DCDC07E0D4E90121D2
:100C400018F8010B9047206A401C2062381EA7F15B
:100C50000107F3DC2046AFF30080032011B041E62A
:100C600001694A1C02610878704700B58FB0CDE970
:100C700001310021059105497944CDE90310114660
:100C80006846FFF7DDFB0FB000BD0000E5FFFFFF8A
:100C90000A6802F8010B0A607047D1E900239A4202
:100CA00002D2531C0B60107070473A2800D23038C3
:100CB00020F02002412A01D3A2F13700884201D35B
:100CC0004FF0FF3070470000026811441378016054
:100CD00018467047D1600549794451610449794407
:100CE000116200211161114600F0B6B8EDFFFFFF5F
:100CF000E5000000426842B1016811F8013B23B1F0
:100D0000521EC0E90012184670470121C160881EBA
:100D1000704742685AB1C368016843B983688B421F
:100D200005D0491E521CC0E90012002070474FF048
:100D3000FF30704700487047D802002030B5B0F14E
:100D40000A024FEA900E71F100034EEA817EB0EB89
:100D50000E0061EB91014FEA101E4EEA017E10EB8E
:100D60000E0041EB11114FEA102E4EEA016E10EB0E
:100D70000E0041EB11214FEA104E4EEA014E10EBEE
:100D80000E0041EB1141401841F100014FEAD00043
:100D900040EA41704FEAD10110EB80054FEA81042F
:100DA00044EA907444EB01046D1944EB0404521BB3
:100DB000A3414FF0000348BF0A3200D530BD401CAC
:100DC00041F1000130BD10B5044600F09BFA006807
:100DD000005D00F0010010BD2DE9F0411F46044602
:100DE00003260168072A01F4006004DB08B116A598
:100DF00005E016A503E008B115A500E015A521F052
:100E000010002060A069C01EA0610FB1401EA0614B
:100E10002046AFF300804FB1D4E901213846904716
:100E2000206A401C2062C01C206206E0206AFAE7AB
:100E3000D4E9012115F8010B9047761EF8D220461F
:100E4000AFF30080BDE8F0814E414E006E616E0050
:100E5000494E4600696E66002DE9F34F4FF0000AD7
:100E60000C4656468DB001200C9001F10C000B9001
:100E700062690B9801219047051E2DD0252D2CD09D
:100E8000216A8847C0B162690B9801219047216AA5
:100E900088470028F7D16269411E0B98904700E00F
:100EA000761CA1690D988847216A88470028F7D1E8
:100EB000E1690D988847DBE7A1690D988847A8424A
:100EC000074601D1761CD3E7E1690D9888477F1C5E
:100ED00002D1BAF1000F6FD06CE162690B98002764
:100EE0003D46394690472A2804D162690B98012172
:100EF00090470125DFF8D08262690B980121904765
:100F0000A0F130010A290AD24745E5DC07EB870149
:100F100000EB4107303FDFD445F01005ECE7E90670
:100F200001D46FF000476C280AD04C2814D06828F0
:100F300015D06A280DD074281CD07A281AD01DE04C
:100F400062690B98012190476C2802D045F0040596
:100F500014E045F002050DE045F020050AE0626965
:100F60000B9801219047682802D045F0080505E05C
:100F700045F4006562690B9801219047C4E9015767
:100F800065283DD019DC58287AD00CDC452837D0AC
:100F900004DC252826D041289ED131E046282FD0D8
:100FA000472899D12CE05B2877D0612828D0632886
:100FB0007CD0642823D15AE0F7E06F2848D008DCC1
:100FC00066281DD067281BD0692821D06E2816D12D
:100FD00027E0702845D0732868D0752847D0782836
:100FE0000DD14DE0A1690D988847252805463FF4AD
:100FF00069AFE1690D9888476D1C3FF46AAFD9E08D
:101000000D9923466A466FF00100AFF30080C6E0F9
:1010100045F0400023464FF000026060A80736D438
:101020003EE0E8077FF447AF2068011D21600068BB
:10103000290501D506701BE7290701D5068017E7AA
:10104000A90703D5F117C0E9006111E706600FE7B2
:1010500045F0400023464FF008026060A80716D410
:101060001EE040F60E0125EA0100606016E045F042
:10107000400023464FF00A026060A80707D40FE043
:1010800045F040006060A80708D5234610220D995E
:101090006FF00100AFF3008081E007E010222346EB
:1010A0000D996FF00100FFF771FA78E04FF0000939
:1010B00063284F46C8464B46CB4602D05B2807D034
:1010C00039E02079C00601D40120A060012732E078
:1010D0006269D4F80CB00B98012190475E2807D1C3
:1010E0004FF0010949466269D4F80CB00B9890475B
:1010F000216939B900210A4603AB43F82120491C74
:101100000829FADBD8B3216949B308F101086269FB
:101110000B98012190475D28F4D1B9F1000F09D057
:10112000002003A951F82020D24341F82020401C80
:101130000828F7DB03AB2069002820794FEA4070CC
:101140001ED05B462246CDF80080CDE901970D996F
:1011500000286FF0010020DAAFF300801FE0C11714
:1011600003AA00EBD1614B1121F01F0102EB8302B6
:10117000411A13680120884003431360C7E719E050
:101180000D99224600286FF00100009702DAAFF3B4
:10119000008004E0AFF3008001E0AFF3008000289E
:1011A0000ADA401C06D10C9820B14FF0FF300FB086
:1011B000BDE8F08F5046FAE7E90701D10AF1010ACC
:1011C000064400200C9053E6CCCCCC0C2DE9F04723
:1011D000814616468AB0354878440DC88DE80D0022
:1011E00032487844801C03AC0DC884E80D0041F6F9
:1011F0009B300844372190FBF1F290FBF1F5A5F10B
:10120000800501FB12041B3C02D56442012000E072
:101210000020DFF898A080460027FA44AAF1BE0A11
:101220000EE0E0070AD03246684607EB470101238B
:101230000AEB810100F050FB8DE8070064107F1C71
:10124000002CEED1194F7F44AE3F19E0E80715D0CE
:1012500007EB04100DF1180A90E80E008AE80E0062
:10126000C068F04201D1981908903246012306A9BE
:1012700003A800F031FB03AB83E807006D10641C8A
:10128000002DE3D14FF0010332466946B8F1000F5B
:1012900003A802D000F00BFB01E000F01DFBC9E940
:1012A0000001C9F808200AB0BDE8F087BC4700007B
:1012B00000487047B80200207546FFF7F9FFAE46B8
:1012C00005006946534620F00700854618B020B552
:1012D000FEF7D4FFBDE820404FF000064FF00007B6
:1012E0004FF000084FF0000B21F00701AC46ACE8CE
:1012F000C009ACE8C009ACE8C009ACE8C0098D463B
:101300007047000010B5FFF715FD001D10BD00BFB0
:10131000213D000010B50446AFF300802046BDE833
:101320001040FEF796BF00004FF0013C50F8042B30
:1013300051F8043B9A4221D1A2EB0C03934313EAE8
:10134000CC1317D150F8042B51F8043B9A4215D115
:10135000A2EB0C03934313EACC130BD150F8042BEC
:1013600051F8043B9A4209D1A2EB0C03934313EAD0
:10137000CC13DBD04FF00000704700BFD01A01BA89
:10138000B1FA81F101F0180122FA01F0CB40C1F16C
:101390002001DBB2C0B2C01A2CFA01F3D11A91437A
:1013A00011EAC311E6D1704701491820ABBEFEE730
:1013B0002600020070475FEA400C08BF91F0000F62
:1013C0004FEA8C234FEAC12243EA51514FEA1C50A5
:1013D00018BF00F5F0404FEA300018BF41F000415F
:1013E0005FEA6C5C00F02980BCF1FF3F08BF40F071
:1013F00080407047130C06BF12044FF0100C4FF0E2
:10140000000C130E04BF12020CF1080C130F04BFE2
:1014100012010CF1040C930F04BF92000CF1020CAA
:10142000D30F04BF52000CF1010C11464FF0000223
:10143000A0F11F00A0EB0C00704711F0004F08BF97
:10144000704731F000413FF4D5AF0B0C06BF0904E3
:101450004FF0100C4FF0000C0B0E04BF09020CF102
:10146000080C0B0F04BF09010CF1040C8B0F04BF17
:1014700089000CF1020CCB0F04BF49000CF1010CE8
:10148000CCF12003A0EB0C0022FA03F302FA0CF2D9
:1014900041EA030100F10100704720F07F4C80EA2F
:1014A000030023F07F47ACEB070303F57C5300F008
:1014B000004003F1FF032DE980494FEA154B09B4C1
:1014C0004FEA144325EA0B4E24EA03480FF20426A0
:1014D00006EB132749083E785FEA320203FB0667F2
:1014E000C7F5000707FB06F64FEA54374FEAD64622
:1014F00006F1020607FB066CCCF1005C4FEA1C47C4
:101500002CEA074C07FB06F40CFB06F504EB15462A
:101510004FEA961634BF00204FF000404FEAD13713
:1015200006FB07FC4FEA1C4C0CFB0BF7D21B03FB22
:101530000CF761EB07010CFB0EF7B0EB074072EB09
:1015400017420CFB08F734BFA2EB0742B2EB07428D
:1015500061EB17414FEA0C444FEA910706FB07FC89
:101560004FEA1C4C0CFB0BF7B0EBC74072EB573249
:1015700003FB0CF734BFA2EBC742B2EBC74261EBEF
:1015800057310CFB0EF7B0EBC70072EB57720CFB38
:1015900008F734BFA2EBC702B2EBC70261EB577189
:1015A000039F4FEA816141EA921104EBCC044FEAB8
:1015B000D1374FEA826206FB07FC42EA90124FEAFB
:1015C00080604FEA1C4C0CFB0BF7D21B03FB0CF7A3
:1015D00061EB07010CFB0EF7B0EB074072EB174213
:1015E0000CFB08F734BFA2EB0742B2EB074261EBFA
:1015F00017414FEA8C554FEA910704EB9C2406FBF8
:1016000007FC4FEA1C4C0CFB0BF7B0EBC74072EB2E
:10161000573203FB0CF734BFA2EBC742B2EBC74211
:1016200061EB57310CFB0EF7B0EBC70072EB577252
:101630000CFB08F734BFA2EBC702B2EBC70261EBA9
:10164000577115EB4C254FEA816141EA92114FEA3F
:1016500082624FEAD13742EA901206FB07FC44F15E
:1016600000044FEA80604FEA1C4C0CFB0BF7D21BC6
:1016700003FB0CF761EB07010CFB0EF7B0EB074027
:1016800072EB17420CFB08F734BFA2EB0742B2EB38
:10169000074261EB174115EB1C154FEA813141EA16
:1016A00092414FEA823242EA90424FEA80304FEA5A
:1016B0000C7644F1000448EA03434EEA0B484FF02D
:1016C000000EB2EB080C71EB030724BF62463946EB
:1016D0004EEB0E0E4FF0000B0018524149414BEB00
:1016E0000B0BB2EB080C71EB03077BF1000B24BF73
:1016F000624639464EEB0E0E4FF0000B0018524179
:1017000049414BEB0B0BB2EB080C71EB03077BF180
:10171000000B24BF624639464EEB0E0E51EA02071B
:1017200018BF46F0010616EB0E7655F1000254F193
:10173000000103D5BDE88901BDE80088BDE8890145
:10174000BDE80048B619524141EB0101A3F1010384
:10175000704780807F7E7D7C7B7A7978777676751E
:101760007473727171706F6E6E6D6C6C6B6A6A6996
:101770006868676666656464636362616160605F30
:101780005F5E5E5D5D5C5C5B5B5A5A5959585857A9
:101790005756565555555454535352525251515011
:1017A00050504F4F4F4E4E4D4D4D4C4C4C4B4B4B64
:1017B0004A4A4A49494948484847474747464646AA
:1017C00045454544444444434343434242424241E5
:1017D0004141002B9C4630D477002BD01CB54FEAFA
:1017E000370703B44FF010004FF01001BAF1000FAB
:1017F00006D0BCF1000FDCBF40F0080040F008014B
:101800004FF000000FBCBDE810400BF1010BBBF125
:10181000010F08BF5FEA170722BF12F1010211F1A1
:1018200001014FF0004143F1000300F0004043EAA2
:1018300000007047F9D35708D0E746EA064613F18F
:10184000400F4FEA16461FDD13F1200FDFBF16438E
:101850000A46002120335B42BED0C3F1200746EA8E
:10186000064602FA07F74FEA164646EA0706C3F1AC
:10187000200722FA03F201FA07F721FA03F14FF0E9
:10188000000342EA0702A7E746EA020646EA0646DE
:101890004FEA164646EA0106BCBF46EA0646360C43
:1018A0004FF000034FF000024FF0000194E72DE9E4
:1018B000804C9A46934670B491E8380007C831EAE4
:1018C000400C48BF34EA430C03D5FFF7E6FDFFF7B1
:1018D00080FFF0BCBDE8008C2DE9804C9A46934611
:1018E00070B491E8380007C810F0804F08BF13F0BB
:1018F000804F03D100F005F8FFF76BFFF0BCBDE8A7
:10190000008C20F07F4780EA030023F07F4C07EB38
:101910000C03A3F57C5300F00040A3F1FE0392F00A
:10192000000F00F0B38095F0000F00F077802DE9F4
:1019300001494FEA11404FEA144621EA004800FBF2
:1019400006FC24EA064708FB06F607FB08F800FB3E
:1019500007F718EB06484CEB164C4FEA124B18EB06
:1019600007484FEA15464CEB174022EA0B4E0BFB9B
:1019700006FC25EA06470EFB06F607FB0EFE0BFBF0
:1019800007F71EEB064E4CEB164C4FF000061EEB15
:10199000074E4CEB174B18EB0B0840F1000018EB0F
:1019A0000E0B58EB000840F100008F1A4FF00001B9
:1019B0003CBFC943661B14BFB5EB040C00213CBF00
:1019C000C943F61B4FEA17444EEA8E0E27EA044538
:1019D0004FEA1C4704FB07622CEA074C05FB07F79C
:1019E0000CFB05F604FB0CFC16EB074642EB17421A
:1019F00016EB0C4642EB1C421BEB060658EB0202B0
:101A0000414146EA9E0601D5BDE80189B619524119
:101A100041EB0101A3F10103BDE801894FEA14453F
:101A20004FEA114724EA054621EA074C05FB07F473
:101A300006FB07F70CFB06F105FB0CFC11EB07415D
:101A400044EB17444FEA124711EB0C4144EB1C44A2
:101A500022EA074C05FB07F206FB07F70CFB06F62C
:101A600005FB0CFC16EB074642EB174216EB0C4647
:101A700042EB1C456A1854F1000148BF7047B61983
:101A8000524141EB0101A3F10103704795F0000FB2
:101A900037D04FEA11424FEA144721EA024624EABE
:101AA000074C02FB07F106FB07F70CFB06F402FBF1
:101AB0000CFC14EB074441EB17414FEA154714EBBC
:101AC0000C4441EB1C4125EA074C02FB07F506FBE1
:101AD00007F70CFB06F602FB0CFC16EB074645EB82
:101AE000174516EB0C4645EB1C42121951F100014B
:101AF00048BF7047B619524141EB0101A3F1010300
:101B000070474FEA14454FEA114724EA054621EA97
:101B1000074C05FB07F106FB07F70CFB06F24FF03D
:101B2000000605FB0CFC12EB074241EB174112EBE0
:101B30000C4251EB1C4148BF7047921841EB010128
:101B4000A3F10103704710B50146806B026C12F0DF
:101B5000500F05D0026CD20626D500F021FC10BD36
:101B6000016C41F40071016401688A6812F0405F01
:101B700017D1027EAAB9CA6A12F4700F02D08A681D
:101B800052050ED44A6822F020024A60016C21F40A
:101B900080710164016CC90403D4016C41F001013E
:101BA000016400F0FBFB10BD806BC26CBDE810400F
:101BB0000846104710B5806B40210164416C41F02C
:101BC0000401416400F0ECFB10BD10B5806B00F027
:101BD000E6FB10BD464910B54A6822F440324A601F
:101BE0004A6843681A434A6001684A6822F480726E
:101BF0004A6001684A68036942EA03224A60016850
:101C00004A6822F040724A6001684A6883681A4351
:101C10004A6001688A6822F400628A6001688A6802
:101C2000C3681A438A60816A6FF07062D1420168AA
:101C30008A6822F070628A6001688A680CD0836AC0
:101C40001A438A6001688A6822F040528A600168FB
:101C50008A68C36A1A4301E022F040528A60016830
:101C60008A6822F002028A6001688A68037E42EA7A
:101C700043028A6090F82010002901684A680FD05A
:101C800042F400624A6001684A6822F460424A6095
:101C900001684A68174C436A04EB43331A4301E076
:101CA00022F400624A600168CA6A22F47002CA62C1
:101CB0000168CA6A838B104C04EB03531A43CA624F
:101CC00001688A6822F400728A6001688A6890F864
:101CD000303042EA43228A6001688A6822F48062D6
:101CE0008A6001688A68406942EA8020886010BD85
:101CF0000023014000E0FFFF0000F0FF1CB50B4C8B
:101D00008DF804000848012301AA4068009046218C
:101D1000206801F061F921686FF0100009684861DE
:101D2000642000F015FE1CBD5400002000000020BF
:101D300010B50B490B4C08607820606010202070B3
:101D40000020A0730120FFF7D9FF0720FFF7D6FF7F
:101D50002078FFF7D3FFBDE81040642000F0F8BD05
:101D600000000020540000201CB5134C00200190FE
:101D70006068022340000090104801AA46210068D4
:101D800001F032F8642000F0E3FD9DF804009DF8B6
:101D9000051001EB002080B203F0BFFB9FED081B94
:101DA00053EC112B03F034FA03F08AFBA08164207A
:101DB00000F0CEFDA0891CBD5400002000000020D2
:101DC000333333333333F33FFEE7000070B5384C21
:101DD000D4E90501E26900EB410101EB8201226ACD
:101DE00001EBC201E160226991425FD0314DC2B284
:101DF0002021284600F029FF227E1021284600F0ED
:101E000024FF227F0821284600F01FFF94F820209D
:101E10004FF40041284800F018FFE06800212061DD
:101E2000084602F02FFC25A002F0CAFB0021012089
:101E300002F028FC26A002F0C3FB0021022002F0E1
:101E400021FC28A002F0BCFB0021032002F01AFCB8
:101E500029A002F0B5FB0D21002002F013FC6069FF
:101E600004F1340555F8200002F0AAFB0D210120F1
:101E700002F008FCA06955F8200002F0A1FB0D213A
:101E8000022002F0FFFBE06955F8200002F098FB09
:101E90000D21032002F0F6FB206A55F8200002F025
:101EA0008FFBBDE87040C82000F052BD70BD00003F
:101EB0000800002000040240000002405048554E37
:101EC0002053554F4E473A2020202020000000008C
:101ED0004D415920424F4D3A2020202020202020E3
:101EE00000000000515541543A202020202020209D
:101EF000202020200000000044454E3A20202020D1
:101F00002020202020202020000000002DE9F04388
:101F100004462DED048B87B0814890EC028AA079AD
:101F200098B14FF47A7500BF00F094FE0146A068A6
:101F3000091AA9420CD258B1D4ED040A94ED030A4F
:101F400007B0BDEC048BBDE8F0834FF4FA65EBE716
:101F500000F080FE401CA060142102A8FEF7EEFBFA
:101F6000A1880122206800F070FEA0880290112054
:101F70000390E07904900220059002A9206800F007
:101F800067FDA1880022206800F05FFE122000F0AB
:101F9000DFFCA1880122206800F057FE142102A86E
:101FA000FEF7CCFBA0880027CDE90207E07904907A
:101FB00002A9206800F04CFD72B600259FED599AE9
:101FC00042F2107609E06D1CADB2B54205D962B699
:101FD00084ED049A84ED039A18E0A188206800F04B
:101FE00027FE0128EFD0002503E06D1CADB2B542FD
:101FF000EDD8A188206800F01BFE0128F5D100254E
:1020000009E06D1CADB2B54205D962B6B0EE480A22
:10201000F0EE680A94E7A188206800F009FE012824
:10202000EFD000974FF000084FF6FF790197072790
:102030000026354601E06D1CADB2A188206800F095
:10204000F7FD012804D04D45F5D101E0761CB6B26C
:10205000A188206800F0ECFD012801D14E45F5D1A2
:10206000AE4206D91DF808000122BA4010430DF80F
:1020700008007F1EFFB2FF2FDAD108F1010000F047
:10208000FF08B8F1050FD2D362B69DF800109DF895
:1020900001009DF803300A189DF8020003441A4419
:1020A0009DF80430D2B29A4231D1A279012A01D0EE
:1020B0002AB32CE0BDF80010DFED1B0A49BA00EE90
:1020C000101A0106B8EE400A60EE208A07D4BDF867
:1020D000020040BA00EE100AB8EE400A0CE020F010
:1020E00080008DF80200BDF80200DFED100A40BA52
:1020F00000EE100AB8EE400A20EE208A07E000EE5B
:10210000101AF8EE408A00EE100AB8EE408AF0EE9F
:10211000680AB0EE480A84ED030AC4ED040A0FE72A
:10212000D0580008000000C3CDCCCC3DCDCCCCBDF8
:10213000014800F09BBA00005802002001681823F3
:10214000CAB2103AB2FBF3F2054B6FF30901032A4E
:102150009B5CC36500D9091D816508467047000076
:10216000FC58000810B5014600208B698A6A4FF0C0
:10217000C07453B1B3F5005F15D072B1012A0CD011
:10218000022A0AD0032A09D104E01AB1012A06D092
:10219000022A03D1C96AC90100D5012010BDC96A4C
:1021A000A142FAD010BD002AF7D0012AF2D0022AAB
:1021B000F3D0032AF3D010BD30B50468256825F4A8
:1021C00080252560046863608368402B036803D022
:1021D00099600068C26030BD9A600068C16030BD1F
:1021E0007047000030B40D480D4C0122836A002175
:1021F000A34201DDC26100E0C1610A4CC36AA3428F
:1022000001DA426100E04161074C036BA34201DA4D
:10221000826100E0816130BCFFF7D8BD080000207A
:102220000000F0410000A04200004842012000F000
:1022300003BC022000F000BC042000F0FDBB08201D
:1022400000F0FABB102000F0F7BB72B6FEE700000A
:1022500078B50024009490F83C20012A19D001227E
:1022600080F83C200A6807230568092A13D9EE681C
:102270000A3A02EB420293409E43EE600B788A6872
:102280000A3B03EB43039A400368DD682A43DA60A4
:1022900010E0022078BD2E6902EB420293409E437B
:1022A0002E610B788A6803EB43039A4003681D692B
:1022B0002A431A614A681F23072A13D205686E6BE6
:1022C000521E02EB820293409E436E630B790A8892
:1022D0005B1E92B203EB83039A4003685D6B2A4353
:1022E0005A6327E005680D2A12D22E6BD21F02EB2B
:1022F000820293409E432E630B790A88DB1F92B2C1
:1023000003EB83039A4003681D6B2A431A6311E0B1
:10231000EE6A0D3A02EB820293409E43EE620B7925
:102320000A880D3B92B203EB83039A400368DD6A8F
:102330002A43DA62164B0568144A9D4206D10D689D
:10234000122D03D1556845F48005556005689D42FE
:1023500018D10B68102B01D0112B13D1536843F403
:1023600000035360096810290CD10A490A4A096818
:10237000B1FBF2F101EB8101490000E0491E00913F
:102380000029FBD180F83C40002078BD00230140AB
:10239000002001405000002040420F00704770476D
:1023A000704770B504004FF0000503D0206C002684
:1023B00010B107E0012070BD204600F01DF86664F2
:1023C00084F83C60206CC00610D4206C20F4885047
:1023D00040F0020020642046FFF7FCFB6664206C9E
:1023E00020F0020040F00100206400E0012584F8A4
:1023F0003C60284670BD000070B586B006461421CA
:102400006846FEF79BF91D493068884234D11C4864
:102410000025016841F480710160006800F480705B
:10242000059017481438016841F002010160006806
:10243000694600F002000590012000900320CDE9DC
:102440000105104800F004FB104C0F48C4E90005DA
:102450000015A560C4E90350400060618000A061E0
:102460004011C4E907052046656200F0CFF908B1C4
:10247000FFF7EBFEB463A66306B070BD0020014019
:102480004438024000040240106402405802002018
:10249000F8B5044600200E46009094F83C1001293F
:1024A00007D0012184F83C1021688B68DB0702D03B
:1024B00011E00220F8BD8B6843F001038B603649C0
:1024C000364B0968B1FBF3F101EB410100E0491E15
:1024D00000910029FBD121688B68DB0503D58B684F
:1024E00023F480738B6021688B68DB0749D0236CF1
:1024F00040F20165AB4343F48073236449684905A6
:1025000005D5216C21F4005141F480512164216CE6
:10251000C90404D5616C21F00601616400E06064C7
:1025200084F83C00A16B1F481D4DC863A16B1E4879
:102530000864A16B1D48C86421686FF02200086020
:102540002068416841F0806141602068816841F401
:10255000807181602168134632464C31A06B00F0D7
:10256000BFF96868C006206802D01149884210D1BE
:10257000816811F0405F0CD1816841F08041816039
:1025800007E0206C40F010002064606C40F0010017
:1025900060640020F8BD00005000002040420F00A1
:1025A00000230140471B0008CB1B0008B51B000897
:1025B000002001402DE9F0410446876D00F04AFB00
:1025C000064694F835000025022806D08020606574
:1025D00084F834500120BDE8F0812068016821F0C2
:1025E000160101602068416921F080014161206C81
:1025F00008B9A06C20B12068016821F008010160D1
:102600002068016821F0010101600CE000F022FB6C
:10261000801B052807D920206065032084F8350039
:1026200084F83450D7E720680068C007EED194F8EA
:102630005C103F208840B860012084F8350084F8A1
:1026400034500020C7E790F83510022903D08021CC
:10265000416501207047052180F835100068016848
:1026600021F0010101600020704700002DE9F843CE
:1026700004464FF00009CDF8009063484FF416511E
:10268000A56D0068B0FBF1F72E6894F85C10082087
:1026900000FA01F131420FD021680A6852070BD5C8
:1026A0000A6822F004020A6094F85C108840A8606E
:1026B000606D40F00100606594F85C104FF0010817
:1026C00008FA01F0304208D021684969090604D5AA
:1026D000A860606D40F00200606594F85C10042012
:1026E0008840304208D021680968890704D5A8606D
:1026F000606D40F00400606594F85C101020884024
:10270000304218D021680968090714D5A8602068EC
:102710000168490304D50068000308D5A16C07E0EF
:102720000168C90503D4016821F008010160216C2A
:1027300009B12046884794F85C1020208840304238
:1027400031D021680968C9062DD5A86094F83500F4
:1027500005282068016806D0490347D500680003B2
:102760001DD4616C1CE021F01601016020684169F4
:1027700021F080014161206C08B9A06C20B1206873
:10278000016821F00801016094F85C103F20884046
:10279000A86084F8358084F83490216D1FE0E16BE7
:1027A00009B120468847606D00282BD0606DC007B6
:1027B00014D0052084F835002068016821F001015B
:1027C00001600098401C0090B84203D8206800685F
:1027D000C007F6D184F8358084F83490E16C002984
:1027E00010D001B02046BDE8F04308470168C90594
:1027F000D5D4016821F01001016084F8358084F897
:102800003490CCE7BDE8F883500000202DE9F0417A
:10281000044600F01FFA06465CB1022084F8350039
:10282000002584F834502068016821F0010101601E
:102830000DE00120BDE8F08100F00CFA801B0528B6
:1028400005D920206065032084F83500F2E7206870
:102850000068C007F0D12268116820480140D4E91F
:1028600001031843D4E9033633431843636918431B
:10287000A3691843E3691843236A18430843616A4C
:10288000042903D1D4E90B131943084310602068CD
:102890004069666A20F0070130460E43012704288C
:1028A0000CD1A06A0643E06A40B12046FFF75AFC0B
:1028B00020B14020606584F83570BAE72068466131
:1028C0002046FFF73BFC94F85C203F21914081605B
:1028D000656584F835700020ACE700003F8010F09B
:1028E0002DE9F0410446866D90F83400002501285A
:1028F0000DD0012084F8340094F835700020012FA9
:1029000007D084F8340002252846BDE8F081022073
:10291000FBE7022784F8357060652046FFF74CFC22
:1029200094F85C103F208840B0602068016841F056
:1029300016010160206C20B12068016841F0080197
:1029400001602068016841F001010160DCE70000DE
:1029500070B5044600F07EF90546601C02D00448BC
:102960000078044400F076F9401BA042FAD370BD11
:102970004400002070B52D4E2D4C0546012813D182
:102980000121304600F054F970B9A0680321401CC1
:1029900090FBF1F201FB120100206061A061E06197
:1029A000A160206202290BD0A068012812D1022D5B
:1029B00011D0042D19D0082D21D0102D29D031E0AF
:1029C0001C48616A01220144AC3801F0ABFAA068EE
:1029D000012827D070BD0221304600F029F908BB3C
:1029E0006069C0F1010060611CE00421304600F024
:1029F0001FF9B8B9A069C0F10100A06112E0082177
:102A0000304600F015F968B9E069C0F10100E061F5
:102A100008E01021304600F00BF918B9206AC0F127
:102A200001002062BDE87040FFF7D0B9000002400D
:102A300008000020F4010020044910B50A68024291
:102A400002D00860FFF796FF10BD0000143C014063
:102A50002DE9F84FDFF8B8A10022012403254FF03B
:102A60000F090AF1040BAAF1040E00BF0B6804FA67
:102A700002F63340B34273D10F7907F00307012FF9
:102A800001D0022F16D187684FEA420805FA08FCE8
:102A900027EA0C07D1F80CC00CFA08FC4CEA070C2A
:102AA000C0F808C04768B7430E79C6F300169640D1
:102AB0003E4346600E79F643B6070DD0C768560010
:102AC00005FA06FC27EA0C07D1F808C00CFA06FC48
:102AD0004CEA070CC0F80CC00E7906F00306022E73
:102AE00010D1D60800EB8608D8F8206057074FEAC7
:102AF000D76C09FA0CF7BE430F6907FA0CF7374396
:102B0000C8F8207006684FEA420C05FA0CF7BE437D
:102B10000F7907F0030707FA0CF7374307604E6891
:102B200016F4403F6DD03B4E376847F4804737601E
:102B3000366822F0030706F480460096364E07EB0F
:102B4000060CDCF8086897073F0F09FA07F826EA31
:102B50000806DFF8C880404503D14FF000081EE0AA
:102B60004FE0DFF8BC80404502D14FF0010816E08D
:102B7000DFF8B080404502D14FF002080FE0DFF8E7
:102B8000A880404502D14FF0030808E0DFF89C80A0
:102B9000404502D14FF0040801E04FF0070808FA61
:102BA00007F848EA0608CCF80888DAF800605746C3
:102BB000D1F804C09E435FEACC2C00D51E433E6092
:102BC000DBF800605F46D1F804C09E435FEA8C2CBE
:102BD00000D51E433E60DEF800607746D1F804C0A1
:102BE0009E435FEA8C3C00D51E433E60084F083F81
:102BF0003E68D1F804C09E435FEACC3C00D51E433A
:102C00003E60521C102AFFF431AFBDE8F88F00007F
:102C1000083C0140443802400030014000000240BE
:102C20000004024000080240000C02400010024074
:102C30000069084000D001207047426921EA020380
:102C40000A4043EA0241816170470AB181617047DD
:102C50000904FBE701488068704700004400002039
:102C600070B5040025D094F83D00002520B984F803
:102C70003C50204600F046FA242084F83D002068AD
:102C8000016821F0010101602068016841F4004100
:102C900001602068016821F40041016000F09CFBA4
:102CA0004D4A6168914201D84C4900E04C49884244
:102CB00001D2012070BD4B492368B0FBF1F15E6881
:102CC00026F03F060E435E606368934206D94FF4D8
:102CD000967359434FF47A73B1FBF3F12368491C9F
:102CE0001E6A26F03F06314319626168914210D88E
:102CF0004900401EB0FBF1F2521CC2F30B02042A41
:102D000001D2042022E0B0FBF1F0401CC0F30B0024
:102D10001CE0A268F2B301EBC10303EB0116431EF2
:102D2000B3FBF6F35B1C43F480431B0549D092B31D
:102D300001EBC10202EB0111401EB0FBF1F0401C9F
:102D4000C0F30B0040F4804040F400402168CA69A1
:102D50004CF6FF739A431043C861D4E9071001434E
:102D60002068026822F0C00211430160D4E9030127
:102D700001432068826848F2FF339A43114381601F
:102D8000D4E9050108432168CA6822F0FF02104314
:102D9000C86001E00EE016E02068016841F0010122
:102DA00001602564202084F83D00256384F83E50AE
:102DB000002070BD01EB4106431EB3FBF6F35B1C24
:102DC000B3E70120C2E701EB4101401EB0FBF1F087
:102DD000401CC0F30B00B7E7A086010080841E00F2
:102DE00000093D0040420F002DE9F84F1F46904674
:102DF0008A460446DDF82890FFF72CFF054694F834
:102E00003D00202871D119230122704920460095E8
:102E100001F09AFA0028F5D194F83C00012864D01A
:102E2000012084F83C0020680168C90703D10168CB
:102E300041F0010101602068016821F40061016036
:102E4000222084F83D00102084F83E0000262664ED
:102E5000C4F824806785608D20855D48E0622B463C
:102E60004A465146204601F07FF9002876D1208D50
:102E7000584F68B1012814D002282068016816D084
:102E800041F48061016020684169806900908EE0B2
:102E90002068416981690091016841F40071016015
:102EA00085E02068016821F480610160F0E721F489
:102EB000806101602068016841F40061E2E7032855
:102EC00046D801280AD0022810D04B4600223946A5
:102ED0002046009501F038FAC8BB25E02A4649464D
:102EE000204601F0D7FA90BB54E06CE04B4600223C
:102EF00039462046009501F027FA40BB206801685A
:102F000041F40071016020680069616A0870606ABC
:102F1000401C6062218D491E2185618D491E61859D
:102F200021680969017039E02068016821F4806135
:102F3000016020680069616A0870606A401C606214
:102F4000208D401E2085608D401E6085CEE705E007
:102F50002A464946204601F09DFA10B10120BDE8FD
:102F6000F88F20680069616A0870606A401C6062BE
:102F7000208D401E81B22185608D401E60852068B5
:102F80004269D243520712D4032903D1016821F4C4
:102F90008061016020680069616A0870606A401C95
:102FA0006062208D401E2085608D401E6085208DD2
:102FB000002884D1202084F83D0084F83E6084F805
:102FC0003C600020CBE70220C9E7000002001000AF
:102FD0000000FFFF040001002DE9F84F1F46904656
:102FE0008A460446DDF82890FFF734FE054694F83B
:102FF0003D0020287FD11923012240492046009519
:1030000001F0A2F9002876D194F83C00012872D092
:10301000012084F83C0020680168C90703D10168D9
:1030200041F0010101602068016821F40061016044
:10303000212084F83D00102084F83E0000262664FC
:10304000C4F824806785608D20852D48E0622B467A
:103050004A465146204601F0FDF890B92068416982
:103060008069009036E02A464946204601F04AFA37
:1030700050B1206C042804D12068016841F400712B
:1030800001600120BDE8F88F606A2168007808615E
:10309000606A401C6062618D491E6185218D491EF8
:1030A00089B2218522685369DB435B070BD451B198
:1030B00000781061606A401C6062608D401E60850F
:1030C000208D401E20852A464946204601F010F9F1
:1030D0000028CED1208D0028C5D154F83D0B0168C1
:1030E00041F400710160202004F81E09E67766773C
:1030F0000020C7E7FFE70220C4E70000020010003D
:103100000000FFFF10B586B0044614216846FDF7A5
:1031100015FB14492068884221D113480021026818
:1031200042F002020260006800F0020005904FF4D5
:10313000407000901220CDE901010320039004208B
:10314000049069460948FFF783FC0748103001687E
:1031500041F400110160006800F40010059006B011
:1031600010BD00000054004030380240000402400E
:103170000248816802781144816070474400002051
:103180000B4810B5016841F400710160016841F419
:1031900080610160016841F480710160032000F0EA
:1031A0006FF8002000F006F800F024F8002010BDB1
:1031B000003C024070B50D4D04464FF47A712878FA
:1031C000B1FBF0F00A490968B1FBF0F000F00CFB2C
:1031D00048B9102C07D200222146501E00F030F8CA
:1031E00000206C6070BD012070BD00004400002014
:1031F000500000200A4808B5016841F48041016090
:10320000006800F4804000900548001F016841F00C
:1032100080510160006800F08050009008BD0000FF
:1032200044380240002809DB00F01F0201219140D0
:103230004009800000F1E020C0F800117047000054
:10324000F0B40E4B1B680C46C3F30223C3F1070511
:10325000042D00D90425191D072901D2002300E0FF
:10326000DB1E012606FA05F1491E214099409E40C9
:10327000761E16403143F0BC01F0C1BD0CED00E0FC
:10328000064900F0070208684FF6FF03184040EABD
:103290000220034A10430860704700000CED00E074
:1032A0000000FA052DE9F0470E46050065D0DFF86D
:1032B0001481D8F80000F7B200F00700B04207D23E
:1032C00088F80070D8F8000000F00700B04254D130
:1032D00028683D4C810712D5400703D5206840F48B
:1032E000E05020602878000703D5206840F4604053
:1032F00020602068A96820F0F0000843206028784A
:10330000C0072DD0304968680839012812D002283A
:1033100013D0032811D00968890700292DDA216804
:1033200021F0030101432160FFF794FC814641F243
:10333000883A0EE009688903EFE709688901ECE73C
:10334000FFF788FCA0EB0901514502D90320BDE835
:10335000F0872068696800F00C00B0EB810FEFD1B6
:10336000D8F80010404601F00701B14207D90770B4
:10337000006800F00700B04201D00120E7E728789C
:10338000400705D52068E96820F4E0500843206034
:103390002878000706D52068296920F4604040EAB3
:1033A000C100206000F038F82168084AC1F3031119
:1033B000515CC8400649086006480068FFF7FAFEFD
:1033C0000020C4E7003C02400838024004590008CD
:1033D00050000020480000200448054900680968A2
:1033E000044AC1F38221515CC8407047500000205C
:1033F0000838024014590008044805490068096863
:10340000044AC1F34231515CC8407047500000206B
:103410000838024014590008154810B5006810F02B
:103420000C02144813D01449042A0FD0082A0ED1D4
:103430000F4C241F2268236802F03F025B0207D56D
:103440002068C0F38810A0FB010106E0084610BD0B
:103450002168C1F38811A1FB00010023FCF720FFC4
:103460002168C1F30141491C4900B0FBF1F010BDD6
:10347000083802400024F40040787D012DE9F84F1F
:1034800004006ED02078DFF84C93C007A9F1040542
:103490004AD009F104000168C1F38101012908D073
:1034A0000068C0F3810002280AD1D9F80000400268
:1034B00006D52868800337D560680028E1D033E05E
:1034C0006068B0F5803F10D0B0F5A02F286810D00C
:1034D00020F480302860286820F48020286060680C
:1034E000A8B1FFF7B7FB06460DE0286840F480302E
:1034F000F4E740F480202860F7E700BFFFF7AAFB5D
:10350000801B642873D828688003F7D50CE0FFF788
:10351000A1FB064605E000BFFFF79CFB801B64286B
:10352000F0D828688003F7D42078DFF8AC828007D1
:103530004FF0000A3ED5A748001D016811F00C0F9E
:1035400008D00068C0F3810002280BD1D9F8000030
:10355000400207D42868800716D5E068012800D10A
:1035600012E033E1E068B8B10120C8F80000FFF7CD
:1035700071FB064605E000BFFFF76CFB801B0228CD
:10358000C0D828688007F7D52868216920F0F8009E
:1035900040EAC10028600DE0C8F800A0FFF75AFB20
:1035A000064604E0FFF756FB801B02281FD8286858
:1035B0008007F7D42078000722D5864F87486169B5
:1035C000703771B101210160FFF744FB064604E04A
:1035D000FFF740FB801B022809D838688007F7D521
:1035E0000EE0C0F800A0FFF735FB064605E082E0DC
:1035F000FFF730FB801B02287DD838688007F7D49E
:103600002078400768D5DFF8CCB100270BF13C0BE0
:10361000DBF80000C0000BD4DBF8001041F0805153
:10362000CBF80010DBF80000012700F0805000907C
:103630006B4E3068C00510D4306840F48070306044
:10364000FFF708FB009005E0FFF704FB0099401A24
:10365000022850D83068C005F6D55E4EA0686C369A
:1036600001280FD00528306810D020F0010030600C
:10367000306820F004003060A068B8B1FFF7EAFAC3
:1036800000900FE0306840F00100F4E740F00400E3
:103690003060F7E7FFF7DEFA0099411A41F288300F
:1036A000814266D830688007F4D50EE0FFF7D2FA81
:1036B000009007E0FFF7CEFA0099411A41F28830F6
:1036C000814256D830688007F4D42FB1DBF800105F
:1036D00021F08051CBF80010A069C8B33D49091D05
:1036E0000968C1F3810102294AD00228504607D057
:1036F000C8F8600000E03CE0FFF7ACFA04463BE0AD
:103700004746C8F86000FFF7A5FA064605E000BF87
:10371000FFF7A0FA801B02282BD828688001F7D475
:10372000D4E907010843A16A2E4A490802EB014186
:10373000626A41EA8211084394F82C1040EA016160
:10374000C9F8001001203866FFF784FA044606E045
:103750003EE000BFFFF77EFA001B022809D8286868
:103760008001F7D534E000BFFFF774FA001B022890
:1037700002D90320BDE8F88F28688001F4D427E03F
:103780000128F7D0D9F80000E26900F480019142E5
:103790001CD1226A00F03F01914217D147F6C07157
:1037A000626A0140B1EB821F10D1A26A4FF0FF3371
:1037B00000F4403103EB5202B1EB024F06D194F812
:1037C0002C1000F07060B0EB016F01D00120D1E748
:1037D0000020CFE70438024000004742800E4742F5
:1037E000007000400000FFFF10B5401EB0F1807F68
:1037F00001D3012010BD4FF0E02460610F2160175C
:1038000001F0FDFA0020A06107202061002010BD1A
:103810007047704770B590F83C20012A2CD00124E5
:1038200080F83C40022280F83D2003685A689D6879
:1038300022F070060A6832435A60104B02689A42BE
:103840000ED0B2F1804F0BD00D4B9A4208D00D4BE9
:103850009A4205D00C4B9A4202D00C4B9A4204D1AA
:10386000496825F080031943916080F83D400021AC
:1038700080F83C10084670BD022070BD0000014079
:103880000004004000080040000C004000400140DF
:1038900010B5040003D094F83D0010B107E00120FA
:1038A00010BD002084F83C00204600F01FF80220E4
:1038B00084F83D00211D206801F04CF8012084F8B7
:1038C000460084F83E0084F83F0084F8400084F805
:1038D000410084F8420084F8430084F8440084F8EE
:1038E000450084F83D00002010BD000008B50068C8
:1038F0000B49884212D10B48016841F00201016076
:103900000068002200F00200009011461D20FFF721
:1039100097FCBDE808401D20FFF784BC08BD0000EF
:10392000000400404038024090F83D10012901D0C9
:1039300001207047022180F83D100168CA6842F0FA
:103940000102CA6000680E4988420ED0B0F1804F73
:103950000BD00C49884208D00B49884205D00B494E
:10396000884202D00A49884204D1816801F00701E7
:10397000062903D0016841F0010101600020704771
:10398000000001400004004000080040000C00401E
:103990000040014070B5044690F83C000025012825
:1039A00017D0012684F83C60022084F83D0020688E
:1039B000826822F0770222F47F42826008685028F1
:1039C00038D00DDC20284FD005DC90B3102811D161
:1039D0004AE0022070BD302846D040280AD13BE0A2
:1039E00060282FD070280DD0B0F5805F03D0B0F5DF
:1039F000005F12D0012584F83D60002084F83C006F
:103A0000284670BDCB68D1E90121206800F0F4FFA1
:103A10002068816841F0770109E0CB68D1E9012194
:103A2000206800F0E9FF2068816841F480418160EE
:103A3000E1E719E0CA684968206800F0EFFF50210B
:103A4000206806E0CA684968206800F0F8FF602135
:103A5000206800F0DBFFCEE7CA684968206800F004
:103A6000DDFF40212068F4E7226801461046F0E7B8
:103A700070472DE9F04104460068C66805694FF0BB
:103A80000007A90713D5B10711D5F91E016101205F
:103A90002077206880698007204602D0FFF7E8FF82
:103AA00004E000F07EF8204600F07CF827776807F5
:103AB00016D5700714D521686FF004000861022044
:103AC00020772068806910F4407F204602D0FFF7FD
:103AD000CFFF04E000F065F8204600F063F8277798
:103AE000280715D5300713D521686FF00800086145
:103AF000042020772068C0698007204602D0FFF7A5
:103B0000B7FF04E000F04DF8204600F04BF82777AF
:103B1000E80616D5F00614D521686FF0100008618C
:103B2000082020772068C06910F4407F204602D02A
:103B3000FFF79EFF04E000F034F8204600F032F872
:103B40002777E80708D0F00706D021686FF001005A
:103B50000861204600F028F8280608D5300606D56A
:103B600021686FF0800008612046FFF751FE68066B
:103B700008D5700606D521686FF040000861204620
:103B800000F026F8A8060AD5B00608D521686FF01F
:103B9000200008612046BDE8F041FFF73ABEBDE8CD
:103BA000F08170477047000010B5006806498842F0
:103BB00008D100F057FFBDE810404FF40051034812
:103BC000FFF73BB810BD00000004004000080240B1
:103BD0007047704770470000F8B5016804460868F0
:103BE000CA684B6910F00F0F4FF0000559D003F071
:103BF000010602F49077374365D0C10705D0D1059F
:103C000003D5616C41F001016164410705D5D90715
:103C100003D0616C41F002016164810705D5D907C9
:103C200003D0616C41F004016164010707D502F023
:103C30002001314303D0616C41F008016164616C83
:103C400000293AD0800604D5900602D5204600F01F
:103C50007CFF20684069616CC0F38010090700D4C4
:103C600060B3204600F04AFF20684069400621D535
:103C70002068143050E8001F21F0400140E8001295
:103C8000002AF5D1E06BA8B16E490165E06BFEF743
:103C9000DAFC002811D0E06B016D01B0BDE8F04006
:103CA000084783060FD593060DD52046BDE8F8409A
:103CB00000F04BBF2046FFF78DFFF8BD2046FFF711
:103CC00089FF6564F8BD266B2023012E7DD1C606D1
:103CD0007BD5D60679D508684868009048694FF0CA
:103CE0000206400641D5E16B086840680004000CFC
:103CF000E8D0A28D8242E5D9E085C869B0F5807F21
:103D00002DD020680C3050E8001F21F4807140E86D
:103D10000012002AF5D12068143050E8001F21F06D
:103D2000010140E80012002AF5D12068143050E863
:103D3000001F21F0400140E80012002AF5D184F86C
:103D40004230256320680C3050E8001F21F010013C
:103D500040E80012002AF5D1E06BFEF72BFC666309
:103D6000A08DE18D401A81B22AE0A08DE18D401A2C
:103D700081B2E08D0028A5D00029A3D022680C32A2
:103D800052E8000F20F4907042E80007002FF5D1B0
:103D90002068143050E8002F22F0010240E800278C
:103DA000002FF5D184F84230256320680C3050E8AC
:103DB000002F22F0100240E80023002BF5D16663AB
:103DC0002046FFF706FFF8BDFFE705062BD51506D1
:103DD00029D594F841002128F5D1A068B0F5805F7D
:103DE00001D12069B0B1206A411C216221680078AC
:103DF0004860E08C401E0004000CE084E3D12068A1
:103E0000C16821F08001C1602068C16841F04001B3
:103E1000C160D8E7206A0088C0F308004860206AC3
:103E2000801C2062E5E74006CDD55006CBD5CA6898
:103E3000204622F04002CA6084F8413000F00AF9BE
:103E4000C1E70000ED4A000870B5040004D094F802
:103E50004100002510B106E0012070BD84F84050FB
:103E6000204600F023F8242084F841002068C1682F
:103E700021F40051C160204600F0C8FE20680169AD
:103E800021F4904101612068416921F02A014161DA
:103E90002068C16841F40051C1606564202084F845
:103EA000410084F842006563002070BD10B586B003
:103EB000044614216846FCF741FC174920688842F3
:103EC00028D116480021026842F010020260006802
:103ED00000F01000059011481438026842F0020208
:103EE0000260006800F002000590C02000900220EF
:103EF000CDE901010320039007200490694608489A
:103F0000FEF7A6FD002211462520FFF799F925208E
:103F1000FFF788F906B010BD001001404438024098
:103F20000004024090F84230202B01D0022070475C
:103F300021B11AB10023036300F0EEBE01207047E7
:103F40007CB500681449884224D1154C134D606A31
:103F5000295C0A290ED0401C6062A068022819D191
:103F6000606A02B02918BDE870400C480122AC38E4
:103F7000FFF7D8BF28440A49002646702031081FA1
:103F8000031FCDE900011A1F06A10448FCF7E0FA5F
:103F90006662E2E77CBD000000100140F4010020F1
:103FA0000800002025642025642025642025640A5B
:103FB000000000002DE9F843044690F841009846BF
:103FC00016460D46202802D00220BDE8F88385B1B0
:103FD0007EB100206064212084F84100FEF73AFEA3
:103FE000A6848146E684A0682027B0F5805F02D0D1
:103FF00003E00120E9E7206910B12E4600250EE01C
:1040000000260CE08021204600F0A1FEA8B9C6B130
:1040100016F8010B21684860E08C401EE084E08CBB
:104020004B464FF00002CDF800800028EAD14FF057
:104030004001204600F08BFE40B184F8417003201F
:10404000C3E735F8020BC0F30800E3E784F84170DA
:104050000020BAE77047FEE710B50021084600F0DF
:1040600011FB20A000F0ACFA0021012000F00AFBB7
:1040700021A000F0A5FA0021022000F003FB23A0FC
:1040800000F09EFA0021032000F0FCFA24A000F0CA
:1040900097FA0A21002000F0F5FA264C012094ED51
:1040A0000A0A00F0D7FA0A21012000F0EBFA0120F9
:1040B00094ED0B0A00F0CEFA0A21022000F0E2FA99
:1040C000012094ED0C0A00F0C5FA0A21032000F04B
:1040D000D9FA94ED010ABDE810400020B8EEC00AFC
:1040E00000F0B8BA4E4849455420444F3A202020A9
:1040F00020202A4300000000444F20414D3A202058
:10410000202020202020202500000000444F2041B6
:104110004D204441543A202020202025000000005A
:10412000434441533A202020202020202020204CAE
:10413000000000000800002001684A69D2435205CF
:104140000FD46FF480624A61002140F8301F2022B2
:1041500042738173026942F004020261017301201B
:1041600070470020704700002DE9F84F0446C06AF0
:104170001E4693460D4621680A6842F480620A6032
:10418000082807D0012805D010F5803F02D0206B09
:10419000112804D12068016841F4807101604FF05A
:1041A00001195B46002249462046009600F0CCF8F3
:1041B0004FF4007840B120680068C00501D5C4F80C
:1041C00040800320BDE8F88F2069DFF884A0B0F5B7
:1041D000804F0FD00620216800EAD51747F0F00085
:1041E000086133465A460AF10601204600F0F4F809
:1041F00058BB03E0E8B240F001001CE02168E8B2DF
:10420000086133465A465146204600F0E5F8E0B9C9
:104210002068416981690091016841F48071016001
:104220005B46002249462046009600F08DF80028A3
:10423000C1D147F0F1002168086133465A46514622
:10424000204600F0C9F80028BCD00120BAE70000E1
:1042500002000100F8B50446C06A1E460D46174626
:10426000082807D0012805D010F5803F02D0206B28
:10427000122804D12068016841F48071016013465E
:1042800000224FF001112046009600F05DF840B189
:1042900020680068C00502D54FF400702064032038
:1042A000F8BD2069B0F5804F0ED00620216800EAE5
:1042B000D51040F0F000086133463A460B492046DD
:1042C00000F08AF878B902E005F0FE0000E0E8B2FC
:1042D00021680861054933463A46891F204600F0A7
:1042E0007BF80028DCD00120F8BD000008000100A8
:1042F00070B516460D4604461EE02046FFF71CFF2B
:1043000008B1012070BD681C16D0FEF7A3FC801B0D
:10431000A84200D885B920684069C04340070BD542
:10432000002044F8300F20216173A073216941F00F
:10433000200121612073E4E720684069C043400701
:10434000DBD4002070BD00002DE9F04798461746E9
:104350000D460446C1F30746DDF820902AE000BF71
:10436000B8F1FF3F26D0FEF775FCA0EB09014145EF
:1043700002D8B8F1000F1DD12068012E16D0806937
:1043800025EA00000004000C12D00020B84211D130
:10439000002044F8300F20216173A073216941F09F
:1043A0002001216120730120BDE8F0874069E7E723
:1043B0000120EBE72068012E0AD0806925EA000081
:1043C0000004000C06D00020B842C9D00020EBE762
:1043D0004069F3E70120F7E72DE9F04798461646D4
:1043E0000D4604464FF000094FF0200AC1F307477D
:1043F00023E020684069C043400515D42068016867
:1044000041F40071016021686FF480604861C4F874
:10441000309084F83DA084F83E90216C41F0040176
:10442000216484F83C9021E0701C06D0FEF712FC59
:10443000A0EB0800B04203D816B1012F1FD021E035
:104440002068012F15D0806925EA00000004000CC7
:1044500018D000BF44F8309F84F80DA084F80E9067
:10446000216941F02001216184F80C900120BDE810
:10447000F087406925EA00000004000CEAD12068BA
:10448000406901E02068806925EA00000004000C12
:10449000AFD1ECE72DE9F041002590460E460446E9
:1044A000202728E04069C043C0060CD454F8301BD4
:1044B0006FF01000486144F810596777A577206ABB
:1044C0002062257714E0FEF7C5FBA0EB0800B042A0
:1044D00000D886B920684069C04340060BD544F82F
:1044E000305F6773A573206940F020002061257359
:1044F0000120BDE8F08120684169C9434906D1D453
:104500000020F6E770B516460D4604461EE020462C
:10451000FFF712FE08B1012070BD681C16D0FEF72F
:1045200099FB801BA84200D885B920684069C04328
:1045300000060BD5002044F8300F20216173A073D2
:10454000216941F0200121612073E4E7206840697E
:10455000C0430006DBD4002070BD0000174910B531
:104560000860032000F056F83220FEF7F1F902202F
:1045700000F050F83220FEF7EBF9062000F04AF880
:104580003220FEF7E5F90C2000F044F83220FEF767
:10459000DFF9282000F03EF83220FEF7D9F980201C
:1045A00000F038F83220FEF7D3F9012000F032F89D
:1045B000BDE810403220FEF7CBB900000400002017
:1045C00010B5044602E0641C00F004F820780028CE
:1045D000F9D110BD1CB500F0F00141F00D028DF8CD
:1045E000042041F0090100018DF8051040F00D0193
:1045F0008DF8061040F009008DF807006420009047
:104600000348042301AA4E210068FEF7E5FC1CBD07
:10461000040000201CB500F0F00141F00C028DF800
:10462000042041F0080100018DF8051040F00C0154
:104630008DF8061040F008008DF807006420009007
:104640000348042301AA4E210068FEF7C5FC1CBDE7
:104650000400002010B5044686B010EE100A01F0E8
:10466000B9F8CDE90001234604A2102102A8FBF706
:104670008FFE02A8FFF7A4FF06B010BD252E2A6604
:10468000000000007FB5094D04283CCD8DE83C00BA
:104690000BD2002909DB142907DA1DF82000084491
:1046A000C0B240F08000FFF7B5FF7FBDD8580008CA
:1046B0001FB500211548009101910291124A039102
:1046C000C0E90021012404618160047680F8201093
:1046D0000F4AC0E90A21C461C16080F8301044610A
:1046E000FDF75FFE08B172B6FEE70820CDE90004D1
:1046F0000720029069460548FDF7AAFD002801D071
:1047000072B6FEE71FBD00000020014064000020DB
:104710000100000F2DE9F04387B014216846FCF733
:104720000DF844480024016841F00401016001686B
:1047300001F004010591016841F001010160016887
:1047400001F001010591016841F00201016000687A
:10475000394F00F002004FF4005505900022294621
:104760003846FEF772FADFF8D480AE0000223146F8
:104770004046FEF76AFADFF8C89000223821484622
:10478000FEF763FA00950125CDE9015469463846E4
:104790000394FEF75DF91F2000904FF40410CDE95B
:1047A000010569464046FEF753F90220CDE90004B1
:1047B000694648460294FEF74BF90096CDE901544C
:1047C000694640460394FEF743F938200090CDE94E
:1047D0000154694648460394FEF73AF90022012144
:1047E0000620FEF72DFD0620FEF71CFD002201210C
:1047F0000720FEF725FD0720FEF714FD002201210A
:104800000820FEF71DFD0820FEF70CFD0022012107
:104810000920FEF715FD0920FEF704FD0022012105
:104820000A20FEF70DFD0A20FEF7FCFC07B0BDE8EC
:10483000F0830000303802400008024000000240CF
:104840000004024010B586B000241748009401947B
:1048500002940394049413490594016040F2E731F3
:10486000C0E9011443F67F61C0E903148461FFF7D6
:104870000FF808B172B6FEE74FF480500090694619
:104880000948FFF787F808B172B6FEE7049404A957
:1048900005480594FEF7BEFF002801D072B6FEE77A
:1048A00006B010BD0004004000010020FEE7FEE756
:1048B00070477047FEF75CBC10B592B03021684677
:1048C000FBF73CFF14210CA8FBF738FF1848002425
:1048D000016841F080510160006800F08050119043
:1048E0001448016821F4404141F40041016000682E
:1048F000069400F4404011900220009001200390A3
:10490000102004906846FEF7B9FD08B172B6FEE7C4
:104910000F20CDE90C040E940F9400210CA81094E4
:10492000FEF7C0FC002801D072B6FEE712B010BD41
:1049300040380240007000400248016841F47001B4
:104940000160704788ED00E00148FFF792B8000071
:1049500000010020F0B50268204B214C9F03214D3F
:10496000214E984207D0B84205D0A04203D0A842B9
:1049700001D0B04204D122F0700C4A6842EA0C0225
:10498000984210D0B8420ED0A0420CD0A8420AD013
:10499000B04208D0154CA04205D0154CA04202D020
:1049A000144CA04203D122F44074CA6822434C69DB
:1049B00022F08002224302608A68C2620A68826230
:1049C000984201D109690163012141610169C90767
:1049D00003D0016921F001010161F0BD0000014037
:1049E0000004004000080040000C0040004001406E
:1049F000004401400048014010B5846842EA0322A7
:104A000024F47F440A432243826010BD826822F06E
:104A100070020A4342F007018160704710B5036AD3
:104A2000046A24F001040462846924F0F00444EA76
:104A3000021423F00A020A438461026210BD10B519
:104A4000036A046A24F010040462846923F0A0035A
:104A500024F4704444EA023243EA011182610162A3
:104A600010BD00002DE9F041DFF85C8088B0D8F877
:104A7000300000F0AFFE06460F46D8F82C0000F0DC
:104A8000A9FE04460D46D8F8280000F0A3FE0B4608
:104A90000246D8F80C10D8F80400CDE906018DE8DC
:104AA000FC000AA264211048D8F80830FBF770FC1B
:104AB00008B00D49BDE8F04182B24FF0FF33A1F1DB
:104AC0004800FFF777BA0000080000202564202581
:104AD0002E326620252E326620252E326620256451
:104AE0002025640A000000009001002010B5806BB2
:104AF0000021C185C184FFF76DF810BD01680C313C
:104B000051E8002F22F4907241E80023002BF5D1E8
:104B10000168143151E8002F22F0010241E800231E
:104B2000002BF5D1016B012909D101680C3151E845
:104B3000002F22F0100241E80023002BF5D12021A4
:104B400080F8421000210163704708B590F84210C8
:104B5000222901D0022008BD82684FF480539A4276
:104B600001D1016921B1816A9A421BD04AB10AE0A0
:104B70000268816A5268C2F308020A80816A891C4D
:104B800008E0026972B10268526802F07F020A709E
:104B9000816A491C8162C18D491E0904090CC185C5
:104BA00003D01BE002685268F1E70168CA6822F08E
:104BB0002002CA600168CA6822F48072CA60016873
:104BC0004A6922F001024A61202180F84210002146
:104BD0004163026B012A03D0FFF7B2F9002008BD40
:104BE000016301680C3151E8002F22F0100241E806
:104BF0000023002BF5D101680A68D20602D50A68A5
:104C000049680091818DFEF7E4FFE7E770B504463F
:104C100000680169E26821F4405111430161216992
:104C2000A068E26908436169114308432168CA68C2
:104C300049F20C639A430243CA6020684169A26941
:104C400021F440711143416131492068884202D00A
:104C50003049884202D1FEF7CFFB01E0FEF7BCFBF2
:104C6000E2690023192164253226B2F5004F6268FB
:104C700028D0A0FB0101930F9200FBF711FB014626
:104C8000B0FBF5F06FF01802504301EB800006EB2B
:104C90000010B0FBF5F000F0F002B1FBF5F002EB14
:104CA0000012B1FBF5F06FF01803584301EB8000E0
:104CB00006EB0010B0FBF5F000F00F002168104487
:104CC000886070BDA0FB010192185B41FBF7E8FA18
:104CD0000146B0FBF5F00201B1FBF5F06FF01803EF
:104CE000584301EB800006EBC000B0FBF5F000F08C
:104CF000F80002EB4002B1FBF5F0584301EB8000F5
:104D000006EBC000B0FBF5F000F00700D6E70000AE
:104D1000001001400014014081628285C28500219B
:104D20004164222180F84210016921B10168CA68FA
:104D300042F48072CA6001684A6942F001024A6125
:104D40000068C16841F02001C160002070472DE972
:104D5000F843984617460D460446089E24E0701C0A
:104D600022D0FDF777FFA0EB0800B0421AD8CEB1F1
:104D70002068C168490717D5802D15D0402D13D064
:104D80000168C94309070FD40168002540680090F5
:104D90002046FFF7B3FE0820606484F840500120ED
:104DA000BDE8F8830320FBE72068006835EA0000CF
:104DB00004D00020B842D2D00020F1E70120F9E76A
:104DC0000148FEF709BF000048010020FEE703B4D8
:104DD00001984100009850EAC12018BF04204A0DF4
:104DE00018BF40F0010040F2FF72B2EB515F08BF04
:104DF00040F00200012808BF052002B070470907F3
:104E0000090E002804DB00F1E02080F80014704750
:104E100000F00F0000F1E02080F8141D70473038DA
:104E20000A2801D201207047002070472DED048B25
:104E300086B0FEF7A5F9FFF73FFDFFF76BFC524880
:104E40000024016841F4800101600068224600F4FA
:104E50008000059021463820FEF7F2F93820FEF751
:104E6000E1F9FFF725FC4A48484901604949C0E992
:104E700001144FF48041C0E9034144618461C4617D
:104E80000462FDF7EDFE08B172B6FEE7FFF7DAFC4B
:104E90003F4841499C3001604FF4E131C0E90114C1
:104EA0000C21C460C0E904418461C461FEF7CCFFF9
:104EB00008B172B6FEE73648FFF750FB3448FCF7FE
:104EC00037FF142235496846FBF706FC304854305A
:104ED000FEF72AFD324D00210846AC60FFF7D2FBF9
:104EE00030A0FFF76DFB00210120FFF7CBFB32A0C4
:104EF000FFF766FB00210220FFF7C4FB33A0FFF79A
:104F00005FFB00210320FFF7BDFB35A0FFF758FB37
:104F10004FF47A742046FDF71BFD9FED368B9FED15
:104F2000379B2E466846FCF7F1FF85ED0A0A684676
:104F3000FCF7ECFF1648C5ED0B0A0122184948386A
:104F4000FDF7A6FA306800F0E8FA53EC182B00F0F1
:104F50005FF953EC192B00F047FB00F07FF8286352
:104F6000FCF702FF6860FFF777F8A86810B1022825
:104F700003D004E0FDF736F901E0FCF727FF2046F7
:104F8000FDF7E6FCCEE70000303802400054004058
:104F9000AC000020A086010000100140E858000885
:104FA0000800002020202020204E484F4D20322095
:104FB0002020202000000000205048414D2054496E
:104FC000454E204441542020000000004E475559D2
:104FD0004E204E474F4320485559454E0000000093
:104FE0005452554F4E472056414E204C494E482072
:104FF000000000009A9999999979444000000000B6
:105000000000594010B500290AD00878002807D0C0
:1050100005487844FCF788F9002801D0002010BD2D
:105020000248784410BD0000C6090000BE09000017
:1050300010B500290AD00878002807D00548784420
:10504000FCF772F9002801D0002010BD0248784416
:1050500010BD0000B6090000AE09000021F00042BA
:10506000A2F16052B2F5801F01F0004328BFD2F1D7
:105070007F6C0BD95FEA001C43EAC20242EB50701E
:1050800018BF704728BF20F001007047B2F5801F9D
:10509000BCBF184670474FEA410C1CF5001F02D2F6
:1050A000084600F00DBC70B500F04AFA0000008917
:1050B000FFF7F6BF4FF00040A0F5800070470000FA
:1050C00010B591EA030F48BF83F0004300F1A082BE
:1050D000841A71EB030C05D2121943EB0C03001B6D
:1050E00061EB0C01DFF824E14FEA1154A4EB135CEF
:1050F0001EEA430F18BF9EEA445F73D023EA0E03F3
:10510000DCF1200E21EA045143F4801332D322FA59
:105110000CFE10EB0E0023FA0CFE41EB0E01CCF15D
:10512000200E03FA0EFE10EB0E0051F10001B1F556
:10513000801FCCF1200E32D201EB045112FA0EF294
:10514000BDE8104058BF7047401C38BF5FEA4202BC
:1051500018BF7047002814BF20F0010041F1000182
:105160004FEA410313F5001F38BF7047A1F1C0415A
:1051700000F034BA012A43EB0302ACF1200CDCF15D
:105180001F0E32BF4FF0000E23FA0CF310EB03009A
:1051900041EB0451B4EB115FD0D0A1EB045101F508
:1051A000801149085FEA300001EB04510ED350F141
:1051B000000038BF12FA0EFE08D1BDE81040C9E762
:1051C000401C38BF5FEA4202CAD1C3E7BDE81040C5
:1051D0004FEA410313F5001F38BF7047A1F1C041EA
:1051E00000F0FCB99EEA445F08D011EA5E0FBDE80A
:1051F000104004BF01F0004100207047BDE810409E
:1052000070B500F09DF900BF64FBBE3E0000E0FFFA
:105210002DE9C04130B4DFF8A0C23CEA111418BF38
:105220003CEA131400F0EC8081EA03051CEA111437
:1052300044EAD57418BF1CEA131500F0C780A4EB2C
:1052400005044FF0004545EAC12145EAC32341EA80
:10525000505143EA525304F17F74994204F50034EB
:105260004FEAC0204FEAC22208BF904200F09C8063
:105270004FEA13650FF24016765D4FEA134506FBC1
:1052800005F7C7F1807706FB07F74FEAD737A7FB8B
:1052900003687642C8F58038A7FB06CE38BFA8F170
:1052A000010807FB08E64FF0000EA6FB028CE6FBA8
:1052B00003CEDCF1000CCEF1004E38BFAEF1010E92
:1052C000A6FB0C584FF000074FF00005E6FB0E87D9
:1052D000A1FB08C6A0FB07CE16EB0E0645F10005A4
:1052E000E1FB076515F1E04E7EBFA4F580345FEA6F
:1052F00046066D4116F1800745F100054FEA172774
:105300004FEA066647EA0567A6F1DE46B6F1805F1A
:105310004FEA15251FD9384624F0010C05EBC4715E
:10532000BCF1FE6F01EB0C1102D8F0BCBDE80081AE
:1053300024425CBF01F5801E9EEAC47F02D4F0BC0B
:10534000BDE80081244238D4F0BCA1F1C041BDE8E1
:10535000004100F043B94FEAD22242EA43524FEAF9
:10536000D323A7FB02864FEAD02040EA415007FB37
:1053700003661EEA0E0F4FEAD12105FB026658BFF5
:10538000A6EB0056B6EB00564FEA520E4EEAC37E2D
:1053900018EB0E0E56EB530EBDD518EB02085E410E
:1053A0007F1C55F10005B6E74FF480154FF000075C
:1053B0004FF000064FF00008ADE7F0BC4FF00000E2
:1053C00001F1C04101F00041BDE8008111EA0C1F6C
:1053D0000CEA131500D00CE013EA0C1F00F0258036
:1053E0004FF00000F0BC81EA030101F00041BDE88C
:1053F0000081F0BCBDE8004181EA030100F0EEB895
:10540000F0BCBDE8004170B500F09AF8097EFC3EA2
:1054100000F007B881EA03014FF0000001F00041FD
:10542000704781EA030100F0D9B8F0BCBDE8004143
:105430004FF0000021497047FFFDFBF9F7F5F4F24A
:10544000F0EEEDEBE9E8E6E4E3E1E0DEDDDBDAD81F
:10545000D7D5D4D3D1D0CFCDCCCBCAC8C7C6C5C47D
:10546000C2C1C0BFBEBDBCBBBAB9B8B7B6B5B4B394
:10547000B2B1B0AFAEADACABAAA9A8A8A7A6A5A47F
:10548000A3A3A2A1A09F9F9E9D9C9C9B9A99999843
:105490009797969595949393929191908F8F8E8EE6
:1054A0008D8C8C8B8B8A8989888887878685858473
:1054B00084838382828181800000FF070000F87F5F
:1054C0004FEA1153A3F58063D3F11E03A8BFD3F1B4
:1054D000200C08DB4FF0004242EAC12252EA50524F
:1054E00032FA03F0704709420BD4102BC4BF0020DE
:1054F000704703F5787CBCF1FF3F05D04FF0FF30DB
:1055000070474FF00000704770B500F019F800BF09
:105510004992248000207047F0E7B0FA80F310FA37
:1055200003F10AD0C3F11D0303F580634FEA415034
:105530004FEA035202EBD12170474FF00000704751
:105540000EF1020E2EF0030E5EF8046B364205D407
:10555000012A43EB030515F5001F12D8012841EB82
:10556000010C1CF5001F0CD80ED14FEAD17C15F5AB
:10557000001F0CEB4C0C0CF1020C08BF4CEBD37C65
:1055800004E04FF0080C01E04FEAD37C0CEB4C0533
:1055900026FA05F606F00706B6F1040C06D20EEB65
:1055A000860CBDE870404CF0010C6047DFE80CF061
:1055B000090B02024FF000414FF00000A1F500215D
:1055C00070BD19461046012851EB010418BFD4F5EF
:1055D000001484BF002001F0004170BD0808A0F550
:1055E00000114FEA3101704791EA030F10B581F0C5
:1055F00000413FF56DAD83F0004300F009B80000B5
:1056000010B591EA030F48BF83F000433FF560AD4A
:10561000841A71EB030C07D212198CF0004C43EB87
:105620000C03001B61EB0C01DFF8A4E14FEA1154FD
:10563000A4EB135C1EEA430F18BF9EEA445F00F020
:10564000B08023EA6E03524221EA0451C3EB6E0399
:1056500038BF5B1EDCF1200E25D322FA0CFE10EBC6
:105660000E0043FA0CFE41EB0E01CCF1200E03FAC2
:105670000EFE10EB0E0051F10001CCF1200E29D4EA
:1056800012FA0EF201EB0451BDE8104058BF70470A
:10569000401C1CBFB2F1004F704700280CBF491CD2
:1056A00020F00100704712EB020E43EB030218BF1B
:1056B0004FF0010E4EEA4202ACF1200CDCF11E0E5E
:1056C00054D943FA0CFE10EB0E0051F1FF31CCF12E
:1056D0001E0ED5D50EF1010E12FA0EFE404141EB21
:1056E000010101EB445C5FEA5C5C10D910EBDE70F9
:1056F00001EB045138BFBEF1004FBDE8104018BFA8
:10570000704700280CBF491C20F00100704730D2C0
:105710004FEAD42C11F5001124F400641BD0B1FA27
:1057200081F20B3AA41AA41ED2F12003914030FA60
:1057300003F31943904001EBCC71002C01EB0451B1
:10574000BDE81040A8BF704701F1C0414FF0000014
:1057500001F000417047B0FA80F310FA03F100D174
:1057600010BDE41A173C4805C90AE4E701EB0451EF
:1057700010BD491001EB0451BDE810404FEA300064
:1057800002E04FF0000170474A0008BF0042F8D025
:10579000B2F5001F28BF704701F000414FF0000034
:1057A00070479EEA445F07D011EA5E0FBDE81040E3
:1057B00004BF002100207047BDE8104070B5FFF71E
:1057C000BFFE00BF40DFF63E83F000411046704749
:1057D0000000E0FF43004FEAD30C4FEA3C0C43408B
:1057E0001FBF40070CF1605113F0FE4F70471CF0D3
:1057F000006F03D100200CF0004170470CF0004313
:1058000043EA507010B540EACC0000F00EF800BF3B
:10581000000000924FEA0001FFF7E0BE4FF00041A8
:105820004FF00000A1F5002170470EF1020E2EF09E
:10583000030E5EF8044B244204D44FEA4102B2F155
:105840007F4F11D84FEA4003B3F17F4F0CD80ED1F0
:105850004FEAD07CB2F17F4F0CEB4C0C0CF1020CF8
:1058600008BF4CEBD17C04E04FF0080C01E04FEA9C
:10587000D17C0CEB4C0324FA03F404F00704B4F1DC
:10588000040C06D20EEB840CBDE810404CF0010C69
:105890006047DFE80CF0070802024FF00040A0F577
:1058A000800010BD0846420018BFD2F1807288BF48
:1058B00000F0004010BD4FF04070E1EE100A70475C
:1058C000FF2141EAD050C0057047FBF793B80000B4
:1058D000000000C3000000C380000000C000000002
:1058E00090000000D000000000040240020001010E
:1058F000000000000000000000000000000610167C
:105900000006101600000000000000000102030461
:10591000060708090000000001020304024000001D
:10592000000000A00000000005400000000000C8CA
:10593000000000000C4000000000409C000000003F
:10594000194000000020BCBE0000000034400000F0
:10595000BFC91B8E00000004B5400000504BCFD0E3
:105960006607E2CF010000006C4100003E8251AAB0
:10597000DFEEA73401000000D9420000DCB5A0E250
:105980003A301F97FFFFFFFFB4450000FD25A0C878
:10599000E9A3C14FFFFFFFFFFF3F000000000080B1
:1059A00000000000FF3F0000000000800000000039
:1059B0004F4646004F4E0000045B000800000020E8
:1059C00054000000D0010008585B0008540000207B
:1059D000C4080000EC0100081C00000043000000A7
:1059E000F8FFFFFF0C0000000E0000000F00000099
:1059F0002E0000001001000043000000F8FFFFFF30
:105A000000404040404040404040414141414140D1
:105A10004040404040404040404040404040404086
:105A20004005020202020202020202020202020215
:105A3000022020202020202020202002020202021A
:105A40000202909090909090101010101010101072
:105A5000101010101010101010101010020202027E
:105A600002028888888888880808080808080808C2
:105A700008080808080808080808080802020202BE
:105A800040000000000000000000000000000000D6
:105A90000000000000000000000000000000000006
:105AA00000000000000000000000000000000000F6
:105AB00000000000000000000000000000000000E6
:105AC00000000000000000000000000000000000D6
:105AD00000000000000000000000000000000000C6
